:100000000C9434000C9449000C9449000C94490061
:100010000C9449000C9449000C9449000C9449003C
:100020000C9449000C9449000C9449000C9449002C
:100030000C9449000C9449000C9449000C9449001C
:100040000C9449000C9449000C9449000C9449000C
:100050000C9449000C9449000C9449000C944900FC
:100060000C9449000C94490011241FBECFEFD8E036
:10007000DEBFCDBF11E0A0E0B1E0E6E5F2E002C0F6
:1000800005900D92AA37B107D9F70E94EA000C94A7
:1000900029010C9400009C01CB01BA01689413F86B
:1000A00096958795779567951694D1F740E050E03F
:1000B0000E940701DA01C9010197A109B109492F7D
:1000C0005A2F6B2F77274093C5008093C40088E197
:1000D0008093C10086E08093C200E0ECF0E0808174
:1000E0008D7F8083089540E054E264EF70E080E803
:1000F00095E20E944B0014B8289A299A0895E0ECE2
:10010000F0E0908195FFFDCF8093C6000895EF92B7
:10011000FF920F931F93CF93DF93E62EF12C1E14C3
:100120001F046CF4082F192FC0E0D0E0F801819172
:100130008F010E947F002196CE15DF05BCF3DF9171
:10014000CF911F910F91FF90EF900895CF93DF9380
:10015000CDB7DEB7CC54D1090FB6F894DEBF0FBED1
:10016000CDBF8CE4E0E0F1E0DE01119601900D924C
:100170008A95E1F76CE4CE0101960E948700C45B8A
:10018000DF4F0FB6F894DEBF0FBECDBFDF91CF912A
:100190000895CF93DF93CDB7DEB7AD970FB6F89440
:1001A000DEBF0FBECDBF8DE2ECE4F1E0DE011196C3
:1001B00001900D928A95E1F76DE2CE0101960E94C1
:1001C0008700AD960FB6F894DEBF0FBECDBFDF91AE
:1001D000CF9108950E94730018990BC00E94A60049
:1001E0002FEF83EC99E0215080409040E1F700C070
:1001F00000001999F1CF0E94C9002FEF83EC99E01C
:10020000215080409040E1F700C00000E5CFA1E21E
:100210001A2EAA1BBB1BFD010DC0AA1FBB1FEE1F80
:10022000FF1FA217B307E407F50720F0A21BB30BCB
:10023000E40BF50B661F771F881F991F1A9469F747
:1002400060957095809590959B01AC01BD01CF01A3
:060250000895F894FFCFB1
:1002560043533A202E69760A0D45503A20453230EE
:10026600303139433630393139333137313133353D
:1002760044363443340A0D45503A20453230303343
:100286003236413730393230464231313136393300
:100296003833450A0D4F4B3A0A0D0A0D43533A209F
:1002A6002E69760A0D4D453A204E6F205472616EC6
:1002B60073706F6E64657220666F756E640A0D45A5
:0A02C600523A3030350A0D0A0D00DF
:00000001FF
