S01C0000426C7565746F6F7468536F667449324354656D702E7372656362
S11300000C9434000C9451000C9451000C94510045
S11300100C9451000C9451000C9451000C94510018
S11300200C9451000C9451000C9451000C94510008
S11300300C9451000C9451000C9451000C945100F8
S11300400C9451000C9451000C94BD020C9451007A
S11300500C9451000C9451000C9451000C945100D8
S11300600C9451000C94510011241FBECFEFD8E022
S1130070DEBFCDBF11E0A0E0B1E0E0E5F9E002C0F1
S113008005900D92A632B107D9F721E0A6E2B1E0BE
S113009001C01D92A732B207E1F70E94B2020C948C
S11300A0A6040C94000094E19A95F1F7089508953C
S11300B0319BFECFA89408950895389839984098B4
S11300C0419888279927309B0895319B089581E0B2
S11300D0089581E090E00895319BEADF389AE3DFE8
S11300E01DD0089581E090E00895399ADCDF3898B6
S11300F0DADF3998D8DF319BDBDF389AD4DF0ED0D2
S1130100089581E090E00895399A389ACCDF3998BF
S1130110CADF319BCDDF3898C6DF08950894881F65
S113012001C0880FB9F0399A00000000000018F4EB
S11301300000389802C0389A00C0B5DF3998A894F6
S1130140000000000000319BB3DF12F4882712C0C6
S1130150AADFE7CF399A000000003898A4DF992776
S113016088273998A8940000319BA2DF7AF3309B4A
S113017081E099DF00000000399A089581E090E061
S1130180089571E0399A38980000000000008BDF70
S1130190399889DFA894000000000000319B88DFB3
S11301A0B2F0889430990894771F60F7399A8030B8
S11301B011F0389801C0389A00000000000073DF85
S11301C03998A89400000000319B72DF6CDF0000B6
S11301D00000399A872F9927089580E208959C0199
S11301E0CB01BA01689413F896958795779567952E
S11301F01694D1F740E050E00E947004DA01C9017E
S11302000197A109B109492F5A2F6B2F77274093E2
S1130210C5008093C40088E18093C10086E0809388
S1130220C200E0ECF0E080818D7F80830895E0ECF3
S1130230F0E0908195FFFDCF8093C6000895EF9282
S1130240FF920F931F93CF93DF93E62EF12C1E148E
S11302501F046CF4082F192FC0E0D0E0F80181913D
S11302608F010E9417012196CE15DF05BCF3DF91A3
S1130270CF911F910F91FF90EF900895CF93DF934B
S1130280CDB7DEB760970FB6F894DEBF0FBECDBF13
S113029080E1E0E0F1E0DE01119601900D928A9593
S11302A0E1F740E054E264EF70E080E895E20E94F8
S11302B0EF000E945D001AB884E08BB9E1ECF0E035
S11302C080818068808310922601789460E1CE0159
S11302D001960E941F0160960FB6F894DEBF0FBE10
S11302E0CDBFDF91CF9108958F929F92AF92BF922D
S11302F0CF92DF92EF92FF920F931F93CF93DF93EE
S1130300CDB7DEB76C970FB6F894DEBF0FBECDBF86
S113031084EB0E946C0087E00E948E0085EB0E94B3
S1130320750080E090E00E94C100182F80E090E00A
S11303300E94C100082F81E090E00E94C1000E9449
S113034084000F77602F70E0762F6627610F711D90
S1130350882777FD8095982F0E946D032AE037ED5A
S113036043EA5CE30E94F9032AE037ED43E25CE3ED
S11303700E94D50223E333E948E853E40E94D502FE
S11303806B017C0126E636E646EE5FE30E94F90344
S113039020E030E040E052E40E94D6024B015C01D0
S11303A020E030E048EC52E4C701B6010E94F903B2
S11303B00E943A039B01CB016AE070E00E945C0456
S11303C089832115310509F0ABC010C0C901B801FA
S11303D00E945C0481932115310541F0C901B801E3
S11303E00E945C049B01EE15FF0581F78AE08E8371
S11303F08DE08F8389E0E0E1F1E0DE011896019061
S11304000D928A95E1F762E0CE0106960E941F01E3
S113041069E0CE0108960E941F018C81805D0E94D4
S113042017018B81805D0E9417018EE20E941701E3
S11304308A81805D0E9417018981805D0E94170175
S113044062E0CE0106960E941F0120E030E048ECF5
S113045052E4C501B4010E94F9030E943A039B01CE
S1130460CB016AE070E00E945C04898321153105A8
S113047009F047C010C0C901B8010E945C0481930F
S11304802115310541F0C901B8010E945C049B01AA
S1130490EE15FF0581F78CE0E9E1F1E0DE0151960C
S11304A001900D928A95E1F76CE0CE0141960E948D
S11304B01F018D81882319F0805D0E9417018C81B2
S11304C0805D0E9417018B81805D0E9417018EE27E
S11304D00E9417018A81805D0E9417018981805DD5
S11304E00E94170162E0CE0106960E941F012FEFC1
S11304F083ED90E3215080409040E1F700C000007C
S11305001EC0C9016AE070E00E945C049B01FE0108
S113051032967E0186E0E80EF11C0AE010E0ABCFD3
S1130520C9016AE070E00E945C049B01FE013296FE
S11305307E0196E0E90EF11C0AE010E047CF6C96CC
S11305400FB6F894DEBF0FBECDBFDF91CF911F91E0
S11305500F91FF90EF90DF90CF90BF90AF909F905E
S11305608F9008950E943E01809126018435E1F721
S11305700E94740110922601F7CF1F920F920FB6BA
S11305800F9211248F93EF93FF93E6ECF0E08081B8
S113059080932601809126018083FF91EF918F91B2
S11305A00F900FBE0F901F9018955058BB27AA2785
S11305B00ED0E5C0D6D030F0DBD020F031F49F3F30
S11305C011F41EF4CBC00EF4E095E7FBC1C0E92F93
S11305D0E7D080F3BA17620773078407950718F00A
S11305E071F49EF5FFC00EF4E0950B2EBA2FA02DEA
S11305F00B01B90190010C01CA01A0011124FF27CC
S1130600591B99F0593F50F4503E68F11A16F040C6
S1130610A22F232F342F4427585FF3CF46953795C5
S11306202795A795F0405395C9F77EF41F16BA0B8A
S1130630620B730B840BBAF09150A1F0FF0FBB1F38
S1130640661F771F881FC2F70EC0BA0F621F731F81
S1130650841F48F4879577956795B795F7959E3FDE
S113066008F0B3CF9395880F08F09927EE0F97956C
S11306708795089504D06894B111B5C0089598D0B1
S113068088F09F5790F0B92F9927B751A0F0D1F077
S1130690660F771F881F991F1AF0BA95C9F712C001
S11306A0B13081F09FD0B1E008959CC0672F782FBE
S11306B08827B85F39F0B93FCCF38695779567956D
S11306C0B395D9F73EF490958095709561957F4FD9
S11306D08F4F9F4F0895E89409C097FB3EF490957F
S11306E08095709561957F4F8F4F9F4F9923A9F007
S11306F0F92F96E9BB279395F69587957795679596
S1130700B795F111F8CFFAF4BB0F11F460FF1BC0D9
S11307106F5F7F4F8F4F9F4F16C0882311F096E96C
S113072011C0772321F09EE8872F762F05C066231A
S113073071F096E8862F70E060E02AF09A95660FD3
S1130740771F881FDAF7880F9695879597F908958C
S113075097F99F6780E870E060E008959FEF80EC70
S1130760089500240A941616170618060906089513
S113077000240A9412161306140605060895092E79
S11307800394000C11F4882352F0BB0F40F4BF2BE8
S113079011F460FF04C06F5F7F4F8F4F9F4F089528
S11307A057FD9058440F551F59F05F3F71F047951E
S11307B0880F97FB991F61F09F3F79F08795089503
S11307C0121613061406551FF2CF4695F1DF08C022
S11307D0161617061806991FF1CF8695710561053F
S11307E008940895E894BB2766277727CB0197F9E7
S11307F008950BD0C4CFB5DF28F0BADF18F09523E5
S113080009F0A6CFABCF1124EECFCADFA0F3959F9A
S1130810D1F3950F50E0551F629FF001729FBB27E3
S1130820F00DB11D639FAA27F00DB11DAA1F649F8F
S11308306627B00DA11D661F829F2227B00DA11D42
S1130840621F739FB00DA11D621F839FA00D611DC8
S1130850221F749F3327A00D611D231F849F600DE9
S1130860211D822F762F6A2F11249F5750408AF022
S1130870E1F088234AF0EE0FFF1FBB1F661F771FAE
S1130880881F91505040A9F79E3F510570F060CFEA
S1130890AACF5F3FECF3983EDCF386957795679596
S11308A0B795F795E7959F5FC1F7FE2B880F911DCC
S11308B09695879597F9089597FB072E16F400945B
S11308C007D077FD09D00E94920407FC05D03EF4BE
S11308D0909581959F4F0895709561957F4F0895E8
S11308E0A1E21A2EAA1BBB1BFD010DC0AA1FBB1F30
S11308F0EE1FFF1FA217B307E407F50720F0A21BA2
S1130900B30BE40BF50B661F771F881F991F1A940E
S113091069F760957095809590959B01AC01BD0138
S1130920CF010895AA1BBB1B51E107C0AA1FBB1F1F
S1130930A617B70710F0A61BB70B881F991F5A9567
S1130940A9F780959095BC01CD010895F894FFCF47
S1130950526561647920746F20726F636B210A0D94
S113096043656C636975733A2046616872656E68A5
S10909706569743A2000E1
S9030000FC
